{
  "contractName": "Ballot",
  "abi": [
    {
      "constant": true,
      "inputs": [
        {
          "name": "",
          "type": "uint256"
        }
      ],
      "name": "proposals",
      "outputs": [
        {
          "name": "name",
          "type": "bytes32"
        },
        {
          "name": "voteCount",
          "type": "uint256"
        }
      ],
      "payable": false,
      "stateMutability": "view",
      "type": "function"
    },
    {
      "constant": true,
      "inputs": [],
      "name": "chairperson",
      "outputs": [
        {
          "name": "",
          "type": "address"
        }
      ],
      "payable": false,
      "stateMutability": "view",
      "type": "function"
    },
    {
      "constant": true,
      "inputs": [
        {
          "name": "",
          "type": "address"
        }
      ],
      "name": "voters",
      "outputs": [
        {
          "name": "weight",
          "type": "uint256"
        },
        {
          "name": "voted",
          "type": "bool"
        },
        {
          "name": "delegate",
          "type": "address"
        },
        {
          "name": "vote",
          "type": "uint256"
        }
      ],
      "payable": false,
      "stateMutability": "view",
      "type": "function"
    },
    {
      "inputs": [
        {
          "name": "proposalNames",
          "type": "bytes32"
        }
      ],
      "payable": false,
      "stateMutability": "nonpayable",
      "type": "constructor"
    },
    {
      "constant": false,
      "inputs": [
        {
          "name": "voter",
          "type": "address"
        }
      ],
      "name": "giveRightToVote",
      "outputs": [],
      "payable": false,
      "stateMutability": "nonpayable",
      "type": "function"
    },
    {
      "constant": false,
      "inputs": [
        {
          "name": "to",
          "type": "address"
        }
      ],
      "name": "delegate",
      "outputs": [],
      "payable": false,
      "stateMutability": "nonpayable",
      "type": "function"
    },
    {
      "constant": false,
      "inputs": [
        {
          "name": "proposal",
          "type": "uint256"
        }
      ],
      "name": "vote",
      "outputs": [],
      "payable": false,
      "stateMutability": "nonpayable",
      "type": "function"
    },
    {
      "constant": true,
      "inputs": [],
      "name": "winnerName",
      "outputs": [
        {
          "name": "winnerName_",
          "type": "bytes32"
        }
      ],
      "payable": false,
      "stateMutability": "view",
      "type": "function"
    }
  ],
  "bytecode": "0x608060405234801561001057600080fd5b50604051602080610ad3833981018060405281019080805190602001909291905050506000336000806101000a81548173ffffffffffffffffffffffffffffffffffffffff021916908373ffffffffffffffffffffffffffffffffffffffff16021790555060018060008060009054906101000a900473ffffffffffffffffffffffffffffffffffffffff1673ffffffffffffffffffffffffffffffffffffffff1673ffffffffffffffffffffffffffffffffffffffff16815260200190815260200160002060000181905550600090505b602060ff168110156101b15760026040805190810160405280848460208110151561010957fe5b1a7f0100000000000000000000000000000000000000000000000000000000000000027effffffffffffffffffffffffffffffffffffffffffffffffffffffffffffff1916600019168152602001600081525090806001815401808255809150509060018203906000526020600020906002020160009091929091909150600082015181600001906000191690556020820151816001015550505080806001019150506100e2565b5050610911806101c26000396000f300608060405260043610610083576000357c0100000000000000000000000000000000000000000000000000000000900463ffffffff1680630121b93f14610088578063013cf08b146100b55780632e4176cf146101055780635c19a95c1461015c5780639e7b8d611461019f578063a3ec138d146101e2578063e2ba53f01461027e575b600080fd5b34801561009457600080fd5b506100b3600480360381019080803590602001909291905050506102b1565b005b3480156100c157600080fd5b506100e06004803603810190808035906020019092919050505061036e565b6040518083600019166000191681526020018281526020019250505060405180910390f35b34801561011157600080fd5b5061011a6103a1565b604051808273ffffffffffffffffffffffffffffffffffffffff1673ffffffffffffffffffffffffffffffffffffffff16815260200191505060405180910390f35b34801561016857600080fd5b5061019d600480360381019080803573ffffffffffffffffffffffffffffffffffffffff1690602001909291905050506103c6565b005b3480156101ab57600080fd5b506101e0600480360381019080803573ffffffffffffffffffffffffffffffffffffffff169060200190929190505050610692565b005b3480156101ee57600080fd5b50610223600480360381019080803573ffffffffffffffffffffffffffffffffffffffff1690602001909291905050506107de565b60405180858152602001841515151581526020018373ffffffffffffffffffffffffffffffffffffffff1673ffffffffffffffffffffffffffffffffffffffff16815260200182815260200194505050505060405180910390f35b34801561028a57600080fd5b5061029361083b565b60405180826000191660001916815260200191505060405180910390f35b6000600160003373ffffffffffffffffffffffffffffffffffffffff1673ffffffffffffffffffffffffffffffffffffffff16815260200190815260200160002090508060010160009054906101000a900460ff1615151561031257600080fd5b60018160010160006101000a81548160ff021916908315150217905550818160020181905550806000015460028381548110151561034c57fe5b9060005260206000209060020201600101600082825401925050819055505050565b60028181548110151561037d57fe5b90600052602060002090600202016000915090508060000154908060010154905082565b6000809054906101000a900473ffffffffffffffffffffffffffffffffffffffff1681565b600080600160003373ffffffffffffffffffffffffffffffffffffffff1673ffffffffffffffffffffffffffffffffffffffff16815260200190815260200160002091503373ffffffffffffffffffffffffffffffffffffffff168373ffffffffffffffffffffffffffffffffffffffff161415151561044557600080fd5b5b600073ffffffffffffffffffffffffffffffffffffffff16600160008573ffffffffffffffffffffffffffffffffffffffff1673ffffffffffffffffffffffffffffffffffffffff16815260200190815260200160002060010160019054906101000a900473ffffffffffffffffffffffffffffffffffffffff1673ffffffffffffffffffffffffffffffffffffffff1614151561058357600160008473ffffffffffffffffffffffffffffffffffffffff1673ffffffffffffffffffffffffffffffffffffffff16815260200190815260200160002060010160019054906101000a900473ffffffffffffffffffffffffffffffffffffffff1692503373ffffffffffffffffffffffffffffffffffffffff168373ffffffffffffffffffffffffffffffffffffffff161415151561057e57600080fd5b610446565b60018260010160006101000a81548160ff021916908315150217905550828260010160016101000a81548173ffffffffffffffffffffffffffffffffffffffff021916908373ffffffffffffffffffffffffffffffffffffffff160217905550600160008473ffffffffffffffffffffffffffffffffffffffff1673ffffffffffffffffffffffffffffffffffffffff16815260200190815260200160002090508060010160009054906101000a900460ff16156106765781600001546002826002015481548110151561065357fe5b90600052602060002090600202016001016000828254019250508190555061068d565b816000015481600001600082825401925050819055505b505050565b6000809054906101000a900473ffffffffffffffffffffffffffffffffffffffff1673ffffffffffffffffffffffffffffffffffffffff163373ffffffffffffffffffffffffffffffffffffffff1614801561073b5750600160008273ffffffffffffffffffffffffffffffffffffffff1673ffffffffffffffffffffffffffffffffffffffff16815260200190815260200160002060010160009054906101000a900460ff16155b801561078957506000600160008373ffffffffffffffffffffffffffffffffffffffff1673ffffffffffffffffffffffffffffffffffffffff16815260200190815260200160002060000154145b151561079457600080fd5b60018060008373ffffffffffffffffffffffffffffffffffffffff1673ffffffffffffffffffffffffffffffffffffffff1681526020019081526020016000206000018190555050565b60016020528060005260406000206000915090508060000154908060010160009054906101000a900460ff16908060010160019054906101000a900473ffffffffffffffffffffffffffffffffffffffff16908060020154905084565b6000600261084761086a565b81548110151561085357fe5b906000526020600020906002020160000154905090565b6000806000809150600090505b6002805490508110156108e0578160028281548110151561089457fe5b90600052602060002090600202016001015411156108d3576002818154811015156108bb57fe5b90600052602060002090600202016001015491508092505b8080600101915050610877565b5050905600a165627a7a723058204527edd9b9ea78a0832831a60da26391fe01314f9644ac6bbd66cb75ddf7e1220029",
  "source": "pragma solidity ^0.4.23;\n\n/**\n * The Ballot contract does this and that...\n */\ncontract Ballot {\n  // Cu? tri (Nguoi bo phieu)\n  struct Voter {\n    uint weight; // Trong so' bo phieu\n    bool voted; // Check bo phieu chua?\n    address delegate; // Uy? quyen cho nguoi khac\n    uint vote; // phieu bau (giong nhu kieu bau so ai, ten phieu bau)\n  }\n\n  // De xuat' (Phieu bau)\n  struct Proposal {\n    bytes32 name; // Ten de xuat (phieu: Voter.vote)\n    uint voteCount; // So' luong phieu bau\n  }\n\n  address public chairperson; // Chu? tich. (dia chi nguoi tao hop dong)\n\n  // Define a dictionary voters, same same dictionary struct in python: voters = {addr1: voter1, addr2: voter2, addr3: boter3}\n  mapping (address => Voter) public voters;\n\n  // Luu de xuat (Proposal) duoi dang mang? (array)\n  Proposal[] public proposals;\n\n  // Constructor\n  constructor (bytes32 proposalNames) public {\n    chairperson = msg.sender; // Khoi tao chu tich la nguoi ky' hop dong (nguoi deploy)\n    voters[chairperson].weight = 1; // Quyen luc chinh 1 (trong so la 1)\n\n    // Khoi tao mang proposals duoi dang {name, voteCount} . voteCount: 0 (phieu bau ban dau)\n    for (uint i = 0; i < proposalNames.length; i++) {\n      proposals.push(Proposal({\n        name: proposalNames[i],\n        voteCount: 0\n      }));\n    }\n  }\n\n  // Trao quyen bo phieu cho cu tri\n  function giveRightToVote(address voter) public {\n\n    // require: kiem tra neu ko dung thi hop dong se cham dut\n    require(\n      (msg.sender == chairperson) && // Chu tich co the thuc hien dieu nay\n      !voters[voter].voted &&        // Cu tri chua bo phieu\n      (voters[voter].weight == 0)    // Cu tri co trong so la 0\n    );\n\n    voters[voter].weight = 1; // Trao quyen duoc bo phieu cho cu tri\n  }\n\n  // Uy? quyen cu tri cua minh cho nguoi khac\n  function delegate(address to) public {\n    Voter storage sender = voters[msg.sender];\n\n    // Khong the chuyen bieu quyet (vote) cho chinh' minh\n    require(to != msg.sender);\n\n    // Thang dai dien bieu quyet (thang duoc uy quyen) cung co the duoc giao pho (uy quyen) cho thang khac\n    // Tim thang dai dien bo phieu cuoi cung va chuyen quyen bieu quyet (delegate) cho thang cuoi cung nay.\n    while (voters[to].delegate != address(0)) {\n      to = voters[to].delegate;\n\n      //\n      require(to != msg.sender);\n    }\n\n    // Cac vote da duoc chuyen (uy thac) => danh dau la da bo? phieu (voted = true)\n    sender.voted = true;\n    sender.delegate = to;\n\n    // Tao 1 doi tuong voter: delegate_ (cu tri duoc uy quyen uy quyen)\n    Voter storage delegate_ = voters[to];\n\n    if (delegate_.voted) {\n      // Neu thang duoc uy quyen da bo phieu => tang so phieu bau chon + trong so cua thang uy quyen (weight = 0 or 1)\n      proposals[delegate_.vote].voteCount += sender.weight;\n    } else {\n      delegate_.weight += sender.weight;\n    }\n  }\n\n  // Bo? phieu (bao gom ca phieu duoc uy quyen)\n  function vote(uint proposal) public {\n    Voter storage sender = voters[msg.sender];\n\n    // Check xem da bo phieu chua. Neu bo phieu roi thi cham dut hop dong.\n    require(!sender.voted);\n\n    sender.voted = true;\n    sender.vote = proposal;\n\n    // Neu proposal nam ngoai pham vi cua mang proposals thi se tu dong break va khoi phuc tat nhung thay doi (revert all changes).\n    proposals[proposal].voteCount += sender.weight;\n\n  }\n\n  // Tinh toan de xuat chien thang dua vao phieu bau hien tai.\n  function winningProposal() internal view\n          returns (uint winningProposal_)\n  {\n    uint winningVoteCount = 0;\n\n    for (uint p = 0; p < proposals.length; p++) {\n      if (proposals[p].voteCount > winningVoteCount) {\n        winningVoteCount = proposals[p].voteCount;\n        winningProposal_ = p;\n      }\n    }\n  }\n\n  // Lay ten cua de xuat chien thang.\n  function winnerName() public view\n          returns (bytes32 winnerName_)\n  {\n    winnerName_ = proposals[winningProposal()].name;\n  }\n}\n\n",
  "sourcePath": "/app/dappchain/contracts/Ballot.sol",
  "compiler": {
    "name": "solc",
    "version": "0.4.24+commit.e67f0147.Emscripten.clang"
  },
  "schemaVersion": "2.0.1",
  "updatedAt": "2018-12-06T16:47:13.578Z"
}